:100000000C948A090C94B2090C94B2090C94B209AC
:100010000C94B2090C94B2090C94B2090C94B20974
:100020000C94B2090C94B2090C94B2090C94B20964
:100030000C94B2090C94B2090C94B2090C94B20954
:100040000C946E100C94B2090C942D130C945F1345
:100050000C94B2090C94B2090C94B2090C94B20934
:100060000C94B2090C94B209436F6D70696C6564AD
:10007000206F6E20536570203237203230313720A8
:1000800061742031343A34393A333400566572732E
:10009000696F6E20312E3330005772697474656E4B
:1000A000206279204E69636B2047616D6D6F6E2E03
:1000B0000041746D65676120636869702070726FBC
:1000C0006772616D6D65722E00556E7265636F6744
:1000D000697A6564207369676E61747572652E0054
:1000E000577269746573206172652074696D656407
:1000F0002C206E6F7420706F6C6C65642E00206213
:10010000797465732E00466C617368206D656D6F40
:1001100072792073697A65203D200050726F6365A3
:1001200073736F72203D20005369676E617475723E
:1001300065203D2000456E74657265642070726FA5
:100140006772616D6D696E67206D6F6465204F4BDE
:100150002E004661696C656420746F20656E74655D
:10016000722070726F6772616D6D696E67206D6F5E
:1001700064652E20446F75626C652D636865636BE2
:1001800020776972696E6721002E00417474656D75
:100190007074696E6720746F20656E74657220706C
:1001A000726F6772616D6D696E67206D6F64652037
:1001B0002E2E2E00446F6E652E0057726974696E84
:1001C00067206675736573202E2E2E004669727344
:1001D00074203130302073686F776E2E0020766582
:1001E00072696669636174696F6E206572726F729D
:1001F0002873292E004E6F206572726F727320660D
:100200006F756E642E002045787065637465643A7E
:1002100020002E20476F743A200056657269666987
:10022000636174696F6E206572726F7220617420F1
:1002300061646472657373200056657269667969DA
:100240006E67202E2E2E005772697474656E2E0014
:1002500057726974696E6720626F6F746C6F616446
:100260006572202E2E2E0045726173696E672063C1
:10027000686970202E2E2E00466978696E67206CA2
:100280006F7720667573652073657474696E672077
:100290002E2E2E00436C656172696E6720274469BB
:1002A0007669646520636C6F636B20627920382700
:1002B0002066757365206269742E0020627974650A
:1002C000732E00426F6F746C6F61646572206C6591
:1002D0006E677468203D2000426F6F746C6F6164BC
:1002E00065722061646472657373203D203078000C
:1002F0004E6F20626F6F746C6F61646572207375EE
:1003000070706F727420666F7220746869732064F5
:1003100065766963652E00436C6F636B2063616C67
:100320006962726174696F6E203D20004C6F636B6F
:100330002062797465203D20004546757365203D37
:1003400020004846757365203D20004C4675736556
:10035000203D2000436F6D6D697474696E67207075
:10036000616765207374617274696E6720617420BF
:1003700030780030780091C00000AAC00000A8C00A
:100380000000A6C00000A4C00000A2C00000A0C0E1
:1003900000009EC000009CC000009AC0000098C0F1
:1003A0000000EFC3000094C4000092C0000090C0A1
:1003B00000008EC000008CC000008AC0000088C011
:1003C000000086C0000084C0000082C0000080C021
:1003D0000000B9C100007CC000007AC0000078C0F5
:1003E000000076C0000074C0000009052B0515064A
:1003F0002B0515066D058A051506DD05EF051A03A3
:1004000053006500650065006400750069006E00BA
:100410006F0020007600340000002A0353006500BE
:1004200065006500640020002800770077007700F1
:100430002E00730065006500650064002E006300F7
:100440006300290000000403090409023E000201C0
:1004500000C032090400000102020100052400016D
:100460001004240206052406000107058203080083
:10047000FF09040100020A00000007050402400011
:10048000010705830240000112011001020000086B
:100490008628040001000102DC0111241FBECFEFF9
:1004A000D2E0DEBFCDBF11E0A0E0B1E0E4E3FFE0C9
:1004B00002C005900D92A631B107D9F722E0A6E15E
:1004C000B1E001C01D92AF32B207E1F764D0EBC6D4
:1004D00052CFFC01E058FF4FA081B1816C93A08105
:1004E000B1819D012F5F3F4F318320832E173F073E
:1004F00021F412969C938E9311972FB7F894FC01D8
:10050000EC57FF4F80818F5F80832FBF0895DC0100
:10051000AE57BF4FED91FC91119741911196FC930D
:10052000EE939C0120583F4FE217F30711F48D938F
:100530009C932FB7F894FC01EC57FF4F908191509A
:1005400090832FBF842F089584B7877F84BF88E16D
:100550000FB6F89480936000109260000FBE87E69B
:1005600090E09093CD008093CC0086E08093CA0009
:100570001092C80088E18093C900539A5A9A8AB1B0
:1005800080638AB98BB180638BB9F0D284E085BD7A
:100590005F9A579A0895D8DF2FB7F8948EE991E0C3
:1005A00090931F0280931E02909321028093200259
:1005B0002FBF2FB7F89489E191E090939A0180932F
:1005C000990190939C0180939B012FBF7894D3E075
:1005D0009FB7F894809122029FBF803849F080E055
:1005E00091E00ED697FD04C0682F8EE991E071DF8F
:1005F0008FB7F894C0919D018FBFA89902C0C136F2
:1006000058F1A89A80919D01882319F05D98D093A4
:100610001601CC2349F089E191E079DF682F80E071
:1006200091E093D5C150F5CF80911601882341F018
:1006300080911601815080931601811101C05D9A4D
:1006400080911701882341F0809117018150809398
:100650001701811101C05C9A9FB7F8948091220222
:100660009FBF882361F08EE991E051DF9091C8002F
:1006700095FFFCCF8093CE005C98D093170180E06B
:1006800091E0B0D59AD4A4CF80E091E011C580E08C
:1006900091E0A5C41F93CF93DF93EC018C89813047
:1006A00031F0823011F010E003C010E201C010E31D
:1006B0008B89823009F418608D89873031F0883059
:1006C00031F0863029F4126003C0146001C0166056
:1006D0001092C9001092C8001092CA002F85388964
:1006E00049895A89211581EE38074105510571F074
:1006F000CA01B901969587957795679560587B47AC
:10070000814E9F4FA8D52150310902C020E130E031
:100710003093CD002093CC001093CA008F85988928
:10072000A989BA898115914EA105B10511F480E01E
:1007300001C082E08093C80088E98093C900DF91FE
:10074000CF911F9108951F920F920FB60F9211240F
:100750002F933F934F935F936F937F938F939F93C9
:10076000AF93BF93EF93FF936091CE008EB384302D
:1007700019F489E191E0ADDEFF91EF91BF91AF9166
:100780009F918F917F916F915F914F913F912F91A9
:100790000F900FBE0F901F901895FC01858580FF6C
:1007A00002C05F9808955F9A0895292F3327223059
:1007B000310559F02330310569F021303105F9F464
:1007C00082E190E022E131E01EC08EE390E024ED72
:1007D00030E019C099278130910541F082309105B0
:1007E00041F0892B61F4E0EDF0E005C0E4EAF0E0CF
:1007F00002C0E8E8F0E0849190E09F0104C080E04E
:1008000090E020E030E0FA0131832083089528E071
:1008100030E040E02817390720F44F5F220F331FE4
:10082000F9CF842F8295807F08958093E900EBEEC5
:10083000F0E0808181608083EDEEF0E010826093D3
:10084000EC0040838091EE00881F8827881F089560
:100850001092F40080E08093E9001092F000109272
:10086000E8001092ED009091EB009E7F9093EB00DA
:100870008F5F853081F708958091270287FD05C03D
:100880008091E80080FF0DC010C08091E80082FDDB
:1008900004C08EB38111F9CF08958091E8008B7761
:1008A00007C08EB38111ECCF08958091E8008E7758
:1008B0008093E800089585E69091EC0090FF05C0D4
:1008C0009091E80090FF05C01BC09091E80092FD58
:1008D00017C09EB39923B1F09EB39530A9F09091C3
:1008E000EB0095FD13C09091E10092FFE5CF909150
:1008F000E1009B7F9093E1008150F1F684E0089540
:1009000080E0089582E0089583E0089581E00895ED
:1009100020912D0230912E022617370748F06115DD
:10092000710539F42091E8002E772093E80001C08A
:10093000B90130E06115710591F12091E80023FDC6
:1009400038C02091E80022FF06C08091E80082FFB5
:1009500029C080E008952EB3222369F12EB32530FB
:1009600061F12091E80020FFE5CF2091F200FC0129
:10097000CF016115710549F0283038F481918093D9
:10098000F100615071092F5FF3CF31E0283009F099
:1009900030E02091E8002E772093E800CBCF311192
:1009A000CCCFD3CF8EB3882331F08EB3853069F6A8
:1009B00004C081E0089582E0089583E008952091C5
:1009C0002D0230912E022617370748F06115710568
:1009D00039F42091E8002E772093E80001C0B90196
:1009E00030E06115710599F12091E80023FD39C0CF
:1009F0002091E80022FF06C08091E80082FF2AC013
:100A000080E008952EB3222371F12EB3253069F1D1
:100A10002091E80020FFE5CF2091F200FC01CF01FA
:100A20006115710551F0283040F484918093F100F4
:100A3000615071092F5F3196F2CF31E0283009F013
:100A400030E02091E8002E772093E800CACF3111E2
:100A5000CBCFD2CF8EB3882331F08EB3853061F601
:100A600004C081E0089582E0089583E0089561154F
:100A7000710529F42091E8002B772093E800611597
:100A8000710549F12091E80023FD2AC02EB32223ED
:100A900059F12EB3253051F12091E80022FFF2CF19
:100AA000FC018091F200882371F09F012F5F3F4F7E
:100AB000C9014091F10040836150710961157105D0
:100AC000C9F2F901EECFCF01D5CF8EB3882361F003
:100AD0008EB3853059F08091E80080FFF6CF02C0D8
:100AE00081E0089580E0089582E0089583E008950C
:100AF00042D044D01EBA10922502109224021092C5
:100B0000230284E089BD89B5826089BD09B400FEF5
:100B1000FDCF8091D800982F9F779093D800806860
:100B20008093D800809163008E7F809363008091D2
:100B3000D8008F7D8093D8008091E0008E7F8093D5
:100B4000E0008091E1008E7F8093E1008091E200DF
:100B500081608093E2008091E100877F8093E100D3
:100B60008091E20088608093E2000895C1DF81E017
:100B70008093260208951092E20008951092E100F9
:100B800008951F920F920FB60F9211242F933F9347
:100B90004F935F936F937F938F939F93AF93BF9385
:100BA000EF93FF938091E10080FF1BC08091E200F2
:100BB00080FF17C08091E1008E7F8093E1008091DB
:100BC000E2008E7F8093E2008091E200806180935A
:100BD000E2008091D80080628093D80019BC1EBAD0
:100BE000EBD18091E10084FF29C08091E20084FF75
:100BF00025C084E089BD89B5826089BD09B400FE45
:100C0000FDCF8091D8008F7D8093D8008091E10046
:100C10008F7E8093E1008091E2008F7E8093E200DE
:100C20008091E20081608093E20080912502882318
:100C300011F084E001C081E08EBBBED18091E10063
:100C400083FF27C08091E20083FF23C08091E100F1
:100C5000877F8093E10082E08EBB10922502809115
:100C6000E1008E7F8093E1008091E2008E7F80938F
:100C7000E2008091E20080618093E200E9DD42E0E1
:100C800060E080E0D2DD8091F00088608093F00029
:100C900093D18091E10082FF0AC08091E20082FF3F
:100CA00006C08091E1008B7F8093E10085D1FF91A8
:100CB000EF91BF91AF919F918F917F916F915F91D4
:100CC0004F913F912F910F900FBE0F901F9018954D
:100CD0001F920F920FB60F9211242F933F934F93B1
:100CE0005F936F937F938F939F93AF93BF93CF93B4
:100CF000EF93FF93E9EEF0E0C081C7701082E0EF60
:100D0000F0E08081877F808378941CD0F894E9EEAE
:100D1000F0E01082A0EFB0E08C9188608C93C083EB
:100D2000FF91EF91CF91BF91AF919F918F917F9163
:100D30006F915F914F913F912F910F900FBE0F9048
:100D40001F9018951F93CF93DF93CDB7DEB7AA9767
:100D50000FB6F894DEBF0FBECDBFE7E2F2E08091A0
:100D6000F100819322E0EF32F207C9F720912702C8
:100D700030912802832F90E08A30910508F010C14D
:100D8000FC01E65CFF4F89C2203881F0223809F06F
:100D900007C180912B0287708093E9008091EB005E
:100DA00085FB882780F91092E90006C08091230214
:100DB00090912402911182609091E800977F909326
:100DC000E8008093F1001092F100BDC0822F8D7F6A
:100DD00009F0E6C0222319F0223061F0D2C08091E0
:100DE0002902813009F0CDC0333009F080E08093D2
:100DF000240228C080912902811124C020912B0255
:100E0000277009F4BEC02093E9008091EB0080FFB9
:100E1000B8C08091EB00333011F4806211C0806162
:100E20008093EB0081E090E0022E01C0880F0A94CD
:100E3000EAF78093EA001092EA008091EB00886064
:100E40008093EB001092E9008091E800877F7EC0DC
:100E50002111A6C0109129028091E800877F80931C
:100E6000E8000ADD8091E80080FD04C08EB38111A6
:100E7000F9CF87C0812F8F7711F093E001C092E006
:100E80009EBB80688093E3007CC02058223008F02D
:100E900087C08091290290912A028C3D23E092071D
:100EA00081F583E08A838AE289834FB7F894DE0173
:100EB000139620E03EE051E2E32FF0E0509357001C
:100EC000E49120FF03C0E295EF703F5FEF7090E385
:100ED0009E0F9A3310F0E95C01C0E92F8E2F90E04D
:100EE0008D939D932F5F243139F74FBF8091E80098
:100EF000877F8093E8006AE270E0CE01019608DD0A
:100F000011C0AE014F5F5F4F60912B024EDC009726
:100F1000C1F12091E800277F2093E800BC0189817E
:100F20009A814DDD8091E8008B778093E80029C09D
:100F30002038B1F58091E800877F8093E8008091A8
:100F400025028093F1008091E8008E778093E8007D
:100F500093DC17C0211124C090912902923088F4AB
:100F60008091E800877F8093E8009093250284DCDD
:100F700080912502882311F084E001C083E08EBBBC
:100F800083DB8091E80083FF0DC08091EB008062DD
:100F90008093EB008091E800877F8093E80002C097
:100FA00076DBEFCFAA960FB6F894DEBF0FBECDBFAB
:100FB000DF91CF911F9108950895CF938EB3882329
:100FC00059F0C091E900C7701092E9008091E800E3
:100FD00083FDB8DEC093E900CF9108950895CF93C3
:100FE000DF93EC018091E80083FF5FC0888190E08F
:100FF00020912B0230912C022817390709F055C097
:1010000080912802813249F018F48032C9F04DC035
:10101000823261F18332C9F148C080912702813A5E
:1010200009F043C08091E800877F8093E80067E083
:1010300070E0CE010F966CDC8091E8008B7713C0D6
:1010400080912702813289F58091E800877F809323
:10105000E80067E070E0CE010F9609DDCE011ADBF3
:101060008091E8008E778093E8001FC0809127026E
:101070008132D9F48091E800877F8093E8008091E5
:1010800029028D87CE0189DB0DC080912702813234
:1010900061F48091E800877F8093E80060912902E5
:1010A000CE019CDFDF91CF91E7CBDF91CF91089507
:1010B0000F931F93CF93DF93EC01FC013D9689E0E2
:1010C000DF011D928A95E9F72A813B818C81882373
:1010D00011F014E001C010E00981C90198DB412F33
:1010E000482B426061E8802FA0DB882341F12E81EC
:1010F0003F818885882311F014E001C010E00D8144
:10110000C90185DB412F482B426060E8802F8DDBD1
:101110008823A9F02A853B858C85882311F014E06B
:1011200001C010E0C985C90172DB412F482B426024
:1011300061EC8C2FDF91CF911F910F9176CB80E0E6
:10114000DF91CF911F910F910895CF93C62F2EB3AA
:101150002430E9F4FC014785508961897289452B67
:10116000462B472BA1F081818093E9008091E80014
:1011700085FF04C0C093F10080E00AC08091E800C0
:101180008E778093E80097DB8823A1F301C082E08B
:10119000CF9108952EB3243019F5FC01478550896D
:1011A00061897289452B462B472BD1F08181809331
:1011B000E9008091F200882389F09091E800809105
:1011C000E8008E778093E80095FD08C074DB8111FC
:1011D00008C08091E8008E778093E80080E0089551
:1011E00082E008952EB3243051F4FC0147855089E4
:1011F00061897289452B462B472B09F0CBCF089587
:101200002EB3243019F08FEF9FEF0895FC0147852E
:10121000508961897289452B462B472BA1F3858123
:101220008093E9008091E80082FFEDCF8091F20089
:10123000882321F02091F10030E002C02FEF3FEF32
:101240008091F200811105C08091E8008B77809336
:10125000E800C9010895A1E21A2EAA1BBB1BFD01DB
:101260000DC0AA1FBB1FEE1FFF1FA217B307E40785
:10127000F50720F0A21BB30BE40BF50B661F771FDD
:10128000881F991F1A9469F76095709580959095BD
:101290009B01AC01BD01CF010895EE0FFF1F05902A
:1012A000F491E02D0994F894FFCF0003400000046E
:1012B00040000002080000000000000000000000E4
:1012C0000000000800020100000304070000000005
:1012D0000000000001020408102040800102040800
:1012E000102001020408102004040404040404046F
:1012F00002020202020203030303030300000000D0
:10130000250028002B0000000000240027002A00F0
:10131000C20E8F1311241FBECFEFD8E0DEBFCDBFAA
:1013200016E0A0E0B1E0E2E3FAE202C005900D921F
:10133000A23DB107D9F727E0A2EDB6E001C01D92AA
:10134000A438B207E1F713E1C4E1D3E104C0229766
:10135000FE010E940615C031D107C9F70E94D214C0
:101360000C9417150C9400008EBD00000DB407FE00
:10137000FDCF8EB508952CB5982F93702C7F922BAE
:101380009CBD9DB582FB882780F99E7F982B9DBDD3
:101390000895CF93DF9300D01F92CDB7DEB72B8394
:1013A0004A8369830E94B4096981862F0E94B40927
:1013B0004A81842F0E94B4092B81822F0F900F90B5
:1013C0000F90DF91CF910C94B4098F929F92AF92BE
:1013D000BF92CF92DF92EF92FF92CF9360FF02C055
:1013E000C8E001C0C0E04B015C01B694A79497949B
:1013F00087946501EE24FF248091D2068C1541F07C
:1014000020E04C2D60E08DE40E94C909C092D20614
:1014100099278B2D7A2D692D20E0482D8C2F806205
:10142000CF91FF90EF90DF90CF90BF90AF909F90C3
:101430008F900C94C909242F60FF02C038E001C0CE
:1014400030E0AB01BC01769567955795479560E014
:10145000832F80640C94C9090F931F93CF93DF935C
:1014600000D000D0CDB7DEB7182F062F442331F0BF
:1014700063E773E087EE96E00E94101419821A82E7
:101480001B821C8280E28B83912F92959F709063C8
:101490009983812F8F7080638A839A3314F0995FC8
:1014A00099838A3314F0895F8A83BE016F5F7F4F0F
:1014B00087EE96E00E943314002321F087EE96E039
:1014C0000E9435140F900F900F900F90DF91CF91E5
:1014D0001F910F910895809100019091010126E2E2
:1014E000289FF001299FF00D1124EE5FFE4F85A18A
:1014F000882331F06AE070E080E090E00C94DB102B
:1015000020E040E060E080EF0E94C90980FDF8CF54
:1015100008958F929F92AF92BF92CF92DF92EF92F7
:10152000FF924B015C0164E573E087EE96E00E9458
:10153000101420E130E0B501A40187EE96E00E948E
:10154000BF14B694A794979487946501EE24FF2462
:101550008091D2068C1541F020E04C2D60E08DE4A6
:101560000E94C909C092D20699278B2D7A2D692D28
:1015700020E0482D8CE40E94C909FF90EF90DF9095
:10158000CF90BF90AF909F908F900C946B0A882360
:1015900039F0282F40E08CEA0E94C9090C946B0AAC
:1015A00008956BE473E087EE96E00E94101420E04B
:1015B00040E060E080E50E94C90941E061E00E94EE
:1015C0002C0A62E473E087EE96E00E94101420E09B
:1015D00040E068E088E50E94C90941E061E00E94BE
:1015E0002C0A69E373E087EE96E00E94101420E075
:1015F00040E068E080E50E94C90941E061E00E94A6
:101600002C0A6CE273E087EE96E00E94101420E052
:1016100040E060E088E50E94C90941E061E00E9485
:101620002C0A20E040E060E080E50E94C90990912A
:101630005505891324C020E040E068E088E50E9459
:10164000C9099091540589131AC020E040E068E070
:1016500080E50E94C90990915305891310C067E184
:1016600073E087EE96E00E94101420E040E060E016
:1016700088E30E94C90941E061E00C942C0A66E508
:1016800075E087EE96E00E944B148091D30690910E
:10169000D40681609093D4068093D306E0CF1F9345
:1016A000CF93DF936BE871E087EE96E00E94101411
:1016B00061E086E00E94B2110E94381082E00E9430
:1016C000BB0961E086E00E94791161E08DE00E9433
:1016D0007911C3E3D0E064E670E080E090E00E941E
:1016E000DB1060E08DE00E94B21161E086E00E94B4
:1016F000B21161E070E080E090E00E94DB1060E0F9
:1017000086E00E94B21169E170E080E090E00E9402
:10171000DB108CEA0E94B40983E50E94B40980E0E2
:101720000E94B409182F80E00E94B4091335A1F07B
:1017300069E871E087EE96E00E941014219759F64F
:1017400087EE96E00E94351462E571E087EE96E040
:101750000E94391480E00BC087EE96E00E94351499
:1017600065E371E087EE96E00E94391481E0DF9135
:10177000CF911F9108952F923F924F925F926F9257
:101780007F928F929F92AF92BF92CF92DF92EF9211
:10179000FF920F931F93CF93DF93CDB7DEB72E97B2
:1017A0000FB6F894DEBF0FBECDBF809100019091BF
:1017B000010116E2189FF001199FF00D1124EE5F50
:1017C000FE4F83859485892B19F460EF72E074C114
:1017D00020E040E060E080E50E94C909782E809119
:1017E000000190910101189FF001199FF00D112443
:1017F000EE5FFE4F87898D87908D9B87A18DAC878B
:10180000B28DBE8785849684A784B08801891289A9
:10181000C388D488E588F688838594859E838D83E4
:1018200068ED72E087EE96E00E94101420E130E04F
:10183000B501A40187EE96E00E94BF1463EC72E04C
:1018400087EE96E00E9410144AE050E0B80187EE5F
:1018500096E00E94B9146BEB72E087EE96E00E946E
:1018600039149D85791639F177FC06C064E972E078
:1018700087EE96E00E94391468E772E087EE96E002
:101880000E94391460EA8D850E94C70A68EE73E0F1
:1018900080E090E00E94DB1061E086E00E94B211DF
:1018A0000E944F0B882309F423C168EE73E080E0A7
:1018B00090E00E94DB1088279927DC018C199D0994
:1018C000AE09BF0989839A83AB83BC832C013D0198
:1018D000482059206A207B2067E672E087EE96E078
:1018E0000E94391420E040E060E88CEA0E94C909B7
:1018F00064E170E080E090E00E94DB100E946B0ADF
:1019000060E572E087EE96E00E943914750164018B
:101910002D803E809601281939092017310798F546
:1019200089819A81AB81BC818C219D21AE21BF210F
:101930008F839887A987BA8784159505A605B7056B
:1019400021F0C301B2010E94890AF1014491C7014B
:10195000B6010E941B0AF10131964491C701B601FC
:101960006F5F7F4F8F4F9F4F0E941B0AF2E02F0E39
:10197000311C82E0C80ED11CE11CF11C4F80588440
:1019800069847A84C7CFC301B2010E94890A67E4DF
:1019900072E087EE96E00E94391469E372E087EE08
:1019A00096E00E943914E12CF12CC12CD12CC016E8
:1019B000D10609F440C0C501B4010E94E509782EA2
:1019C000ED81FE81EC0DFD1D6490861559F195E6C3
:1019D000E916F10420F56AE172E087EE96E00E94D4
:1019E000101420E130E0B501A40187EE96E00E94DA
:1019F000AC1462E172E087EE96E00E94101441E0C0
:101A000060E0872D0E942C0A66E072E087EE96E087
:101A10000E94101441E061E0862D0E942C0AAFEF75
:101A2000EA1AFA0ABFEFCB1ADB0AEFEF8E1A9E0A08
:101A3000AE0ABE0ABCCFE114F10409F565EF71E00E
:101A400087EE96E00E9439146AEB71E087EE96E02B
:101A50000E94391460EA8D850E94C70A68EA8B8566
:101A60000E94C70A64EA8C850E94C70A60EE8E85D0
:101A70000E94C70A0E94D10A64EB71E01DC08091E8
:101A8000D3069091D4068E299F299093D4068093F3
:101A9000D3064AE050E0B70187EE96E00E94B91401
:101AA0006DED71E087EE96E00E943914F5E6EF16D1
:101AB000F104F0F06CEC71E087EE96E02E960FB634
:101AC000F894DEBF0FBECDBFDF91CF911F910F9174
:101AD000FF90EF90DF90CF90BF90AF909F908F904E
:101AE0007F906F905F904F903F902F900C9439149F
:101AF0002E960FB6F894DEBF0FBECDBFDF91CF910B
:101B00001F910F91FF90EF90DF90CF90BF90AF901B
:101B10009F908F907F906F905F904F903F902F900D
:101B20000895CF92DF92EF92FF920F931F93CF937E
:101B3000DF9300D01F92CDB7DEB78FEF9FEF90936A
:101B40000101809300011092D20668E271E087EEF5
:101B500096E00E9410148E010F5F1F4FF12CD02EC3
:101B6000C12E20E04F2D60E080E30E94C909F801FA
:101B700081938F0141E060E00E942C0AF394F3E02E
:101B8000FF12EFCF87EE96E00E94351492E0E92E27
:101B900091E0F92E00E010E043E050E0B7018D2D18
:101BA0009C2D0E940A1526E2E20EF11C892B09F0F9
:101BB00044C010930101009300016BE171E087EED6
:101BC00096E00E94101486E2D82ED09E7001D19E1D
:101BD000F00C1124C7018E5F9E4F7C01FC016381D4
:101BE000748187EE96E00E944B1466E071E087EE08
:101BF00096E00E941014F701458156816781708537
:101C00002AE030E087EE96E00E94AC146EEF70E0C0
:101C100087EE96E00E9439148091000190910101B5
:101C2000D89EF001D99EF00D1124EE5FFE4F85A1E4
:101C30008823D1F060EE70E008C00F5F1F4F0D31B8
:101C4000110509F0A9CF69EC70E087EE96E00F90DE
:101C50000F900F90DF91CF911F910F91FF90EF9018
:101C6000DF90CF900C9439140F900F900F90DF916C
:101C7000CF911F910F91FF90EF90DF90CF9008953B
:101C800026E040E052EC61E070E087EE96E00E94D2
:101C9000CB1287EE96E00E94351461EB70E087EE80
:101CA00096E00E94391469E970E087EE96E00E94A0
:101CB00039146CE870E087EE96E00E94391468E60B
:101CC00070E087EE96E00E94391461E086E00E94A1
:101CD000B2110E94381082E00E94BB0961E084E3E7
:101CE0000C94791181E090E09093D4068093D30610
:101CF00065E675E087EE96E00E944B1461E0809106
:101D000050050E94791160E0809150050E94B21147
:101D10000E944F0B882341F11092D4061092D306F3
:101D20000E94910D0E94D10A8091000190910101C1
:101D3000019641F00E94BB0B68EE73E080E090E0FA
:101D40000E94DB100E94910D0E94D10A8091000137
:101D500090910101019641F00E94BB0B68EE73E087
:101D600080E090E00E94DB100E944F0B882339F046
:101D700063E775E087EE96E00E944B14EFCF08957D
:101D80000C94720ECF93DF934091D9065091DA06EE
:101D90006091DB067091DC0640933F025093400255
:101DA00060934102709342022AE43FE03093440280
:101DB00020934302D0915505D0934902C091540518
:101DC000C0934A02F0915305F0934B02E091520503
:101DD000E0934C028091D5069091D606A091D7064B
:101DE000B091D80680934F0290935002A093510275
:101DF000B093520210925302109254021092550264
:101E000010925602409365025093660260936702F7
:101E10007093680230936A0220936902D0936F0234
:101E2000C0937002F0937102E09372028093750286
:101E300090937602A0937702B09378021092790281
:101E400010927A0210927B0210927C0240938B02D5
:101E500050938C0260938D0270938E0230939002A7
:101E600020938F02D0939502C0939602F09397022D
:101E7000E093980280939B0290939C02A0939D0212
:101E8000B0939E0210929F021092A0021092A102A3
:101E90001092A2024093490350934A0360934B036C
:101EA00070934C0330934E0320934D03D093530310
:101EB000C0935403F0935503E09356038093590362
:101EC00090935A03A0935B03B0935C0310925D035D
:101ED00010925E0310925F0310926003409395038B
:101EE00050939603609397037093980330939A03EB
:101EF00020939903D0939F03C093A003F093A10371
:101F0000E093A2038093A5039093A603A093A70355
:101F1000B093A8031092A9031092AA031092AB03E6
:101F20001092AC0340930704509308046093090493
:101F300070930A0430930C0420930B04D093110483
:101F4000C0931204F0931304E093140480931704D5
:101F500090931804A0931904B0931A0410921B04D0
:101F600010921C0410921D0410921E0440937904D8
:101F700050937A0460937B0470937C0430937E04C6
:101F800020937D04D0938304C0938404F09385044C
:101F9000E09386048093890490938A04A0938B0431
:101FA000B0938C0410928D0410928E0410928F04C2
:101FB0001092900440939F045093A0046093A10456
:101FC0007093A2043093A4042093A304D093A90493
:101FD000C093AA04F093AB04E093AC048093AF04E5
:101FE0009093B004A093B104B093B2041092B304E0
:101FF0001092B4041092B5041092B60440933705C1
:10200000509338056093390570933A0530933C0539
:1020100020933B05D0934105C0934205F0934305BF
:10202000E09344058093470590934805A0934905A4
:10203000B0934A0510924B0510924C0510924D0535
:1020400010924E05DF91CF91089561E08091500587
:102050000E94791160E0809150050E94B2110E94A7
:10206000400E87EE96E00E94E811892BD1F3089587
:10207000CF93CFB7F8948091DD06811127C0E2EFAE
:10208000F2E18491EEEDF2E19491E82FF0E0EE0FB1
:10209000FF1FEA5FFC4EA591B4918C91892321F436
:1020A00061E08AE00E94B21161E08AE00E94791149
:1020B0008CB580618CBD8CB580648CBD61E08DE099
:1020C0000E94791161E08BE00E9479118091DD0618
:1020D0008F5F8093DD06CFBFCF9108951F920F923F
:1020E0000FB60F9211242F933F938F939F93AF932B
:1020F000BF938091DF069091E006A091E106B09138
:10210000E2063091DE0623E0230F2D3720F40196FE
:10211000A11DB11D05C026E8230F0296A11DB11D0A
:102120002093DE068093DF069093E006A093E106FD
:10213000B093E2068091E3069091E406A091E50653
:10214000B091E6060196A11DB11D8093E306909320
:10215000E406A093E506B093E606BF91AF919F9188
:102160008F913F912F910F900FBE0F901F90189558
:102170003FB7F8948091E3069091E406A091E506BC
:10218000B091E60626B5A89B05C02F3F19F0019631
:10219000A11DB11D3FBF6627782F892F9A2F620F8F
:1021A000711D811D911D42E0660F771F881F991FC9
:1021B0004A95D1F708958F929F92AF92BF92CF9296
:1021C000DF92EF92FF926B017C010E94B8104B01ED
:1021D0005C01C114D104E104F104F1F00E94E114A6
:1021E0000E94B810681979098A099B09683E7340F2
:1021F0008105910570F321E0C21AD108E108F108C8
:1022000088EE880E83E0981EA11CB11CC114D10475
:10221000E104F10429F7DDCFFF90EF90DF90CF903C
:10222000BF90AF909F908F900895789484B582600E
:1022300084BD84B5816084BD85B5826085BD85B56A
:10224000816085BDEEE6F0E0808181608083E1E819
:10225000F0E0108280818260808380818160808351
:10226000E0E8F0E0808181608083E1EBF0E0808154
:1022700084608083E0EBF0E0808181608083EAE726
:10228000F0E08081846080838081826080838081AF
:10229000816080838081806880831092C10008956E
:1022A000833081F028F4813099F08230A1F00895D4
:1022B0008730A9F08830B9F08430D1F48091800063
:1022C0008F7D03C0809180008F7780938000089578
:1022D00084B58F7702C084B58F7D84BD08958091C9
:1022E000B0008F7703C08091B0008F7D8093B000E5
:1022F0000895CF93DF9390E0FC01EC52FD4E2491C2
:10230000FC01E851FD4E8491882349F190E0880F4B
:10231000991FFC01EA5FFC4EA591B49184509D4E3B
:10232000FC01C591D4919FB7611108C0F8948C91BC
:10233000209582238C93888182230AC0623051F4D5
:10234000F8948C91322F309583238C938881822B43
:10235000888304C0F8948C91822B8C939FBFDF916B
:10236000CF9108950F931F93CF93DF931F92CDB713
:10237000DEB7282F30E0F901E054FD4E8491F901D9
:10238000EC52FD4E1491F901E851FD4E04910023E9
:10239000C9F0882321F069830E9450116981E02FE0
:1023A000F0E0EE0FFF1FE450FD4EA591B4919FB7F2
:1023B000F8948C91611103C01095812301C0812B89
:1023C0008C939FBF0F90DF91CF911F910F91089534
:1023D000FC01818D228D90E0805C9F4F821B9109D2
:1023E0008F7399270895FC01918D828D981731F094
:1023F000828DE80FF11D858D90E008958FEF9FEF9E
:102400000895FC01918D828D981761F0828DDF0116
:10241000A80FB11D5D968C91928D9F5F9F73928FD7
:1024200090E008958FEF9FEF089585E893E1892B61
:1024300049F080E090E0892B29F00E9485138111FA
:102440000C9400000895FC01848DDF01A80FB11DDC
:10245000A35ABF4F2C91848D90E001968F739927DA
:10246000848FA689B7892C93A089B1898C918064C7
:102470008C93938D848D981306C00288F389E02D88
:1024800080818F7D80830895CF93DF93EC01888DC9
:102490008823C9F0EA89FB89808185FD05C0A88968
:1024A000B9898C9186FD0FC00FB607FCF5CF8081EE
:1024B00085FFF2CFA889B9898C9185FFEDCFCE0138
:1024C0000E942312E7CFDF91CF910895CF92DF9240
:1024D000FF920F931F93CF93DF931F92CDB7DEB779
:1024E0006C0181E0D60158968C9358975B969C912D
:1024F0005B975C968C915C97981307C05096ED9112
:10250000FC915197808185FD2EC0F601038D10E06E
:102510000F5F1F4F0F731127F02EF601848DF812F5
:1025200011C00FB607FCF9CFD6015096ED91FC9182
:102530005197808185FFF1CFC60169830E942312E4
:102540006981EBCF838DE80FF11DE35AFF4F608364
:10255000D6015B960C935B975296ED91FC91539745
:10256000808180620CC0D6015696ED91FC91579700
:1025700060835096ED91FC915197808180648083B7
:1025800081E090E00F90DF91CF911F910F91FF902C
:10259000DF90CF900895BF92CF92DF92EF92FF929B
:1025A000CF93DF93EC016A017B01B22EE889F989B0
:1025B00082E08083411581EE580761057105A1F025
:1025C00060E079E08DE390E0A70196010E94E214BB
:1025D000215031094109510956954795379527955D
:1025E000211580E1380798F0E889F989108260E8C0
:1025F00074E88EE190E0A70196010E94E214215058
:102600003109410951095695479537952795EC852C
:10261000FD853083EE85FF852083188EEC89FD894A
:10262000B082EA89FB89808180618083EA89FB89A5
:10263000808188608083EA89FB89808180688083CB
:10264000EA89FB8980818F7D8083DF91CF91FF9024
:10265000EF90DF90CF90BF9008951F920F920FB62A
:102660000F9211242F938F939F93EF93FF93E091F9
:10267000F706F091F8068081E091FD06F091FE06E4
:1026800082FD12C09081809100078F5F8F7320912F
:102690000107821751F0E0910007F0E0E951F94F8E
:1026A000958F8093000701C08081FF91EF919F91EA
:1026B0008F912F910F900FBE0F901F9018951F9222
:1026C0000F920FB60F9211242F933F934F935F9366
:1026D0006F937F938F939F93AF93BF93EF93FF93EA
:1026E00087EE96E00E942312FF91EF91BF91AF9188
:1026F0009F918F917F916F915F914F913F912F911A
:102700000F900FBE0F901F90189587EE96E00E94D5
:10271000E81121E0892B09F420E0822F089510921E
:10272000EA061092E90688EE93E0A0E0B0E080931C
:10273000EB069093EC06A093ED06B093EE0684EBC7
:1027400096E09093E8068093E70685EC90E09093FE
:10275000F4068093F30684EC90E09093F606809361
:10276000F50680EC90E09093F8068093F70681ECF4
:1027700090E09093FA068093F90682EC90E09093B3
:10278000FC068093FB0686EC90E09093FE06809317
:10279000FD06109200071092010710920207109296
:1027A00003070895CF92DF92EF92FF920F931F934A
:1027B000CF93DF937C016A01EB0100E010E00C1580
:1027C0001D0571F06991D701ED91FC910190F081A7
:1027D000E02DC7010995892B19F00F5F1F4FEFCF2F
:1027E000C801DF91CF911F910F91FF90EF90DF9083
:1027F000CF9008956115710581F0DB010D900020E7
:10280000E9F7AD0141505109461B570BDC01ED9131
:10281000FC910280F381E02D099480E090E008951E
:10282000EF92FF920F931F93CF93DF938C017B0165
:10283000C0E0D0E0F701EC0FFD1F6491662359F072
:10284000F801A081B181ED91FC91C8010995892B16
:1028500011F02196EFCFCE01DF91CF911F910F9113
:10286000FF90EF9008950C94FA1360EC76E00C94CE
:10287000FA130F931F93CF93DF93EC010E94101470
:102880008C01CE010E943514800F911FDF91CF91F2
:102890001F910F9108950F931F93CF93DF93EC0136
:1028A0000E94FA138C01CE010E943514800F911FF3
:1028B000DF91CF911F910F9108958F929F92AF92C8
:1028C000BF92DF92EF92FF920F931F93CF93DF930C
:1028D000CDB7DEB7A1970FB6F894DEBF0FBECDBF60
:1028E0007C01F42FD52ECB0119A2223008F42AE066
:1028F0008E010F5D1F4F822E912CA12CB12C6F2FBA
:102900007D2DA50194010E94E214F22FD32ECA015D
:10291000015011096A3014F4E0E301C0E7E3E60F67
:10292000D801EC93232B242B252B49F7B801C701A1
:102930000E94FA13A1960FB6F894DEBF0FBECDBF6A
:10294000DF91CF911F910F91FF90EF90DF90BF909B
:10295000AF909F908F9008952115310541F4DC01CF
:10296000ED91FC910190F081E02D642F09940C947D
:102970005D149A01AB0160E070E00C94AC140F930D
:102980001F93CF93DF93EC010E94AC148C01CE0116
:102990000E943514800F911FDF91CF911F910F91ED
:1029A000089508950E9415110E94D1140E942510C7
:1029B000C5E1D2E10E94C00E2097E1F30E941512FA
:1029C000F9CF0895A1E21A2EAA1BBB1BFD010DC071
:1029D000AA1FBB1FEE1FFF1FA217B307E407F507CF
:1029E00020F0A21BB30BE40BF50B661F771F881FAB
:1029F000991F1A9469F760957095809590959B0141
:102A0000AC01BD01CF010895EE0FFF1F0590F491B9
:102A1000E02D0994FB01DC0104C08D910190801927
:102A200021F441505040C8F7881B990B0895F89441
:022A3000FFCFD6
:102A3200FFFF1E910B80050008000000000000004F
:102A42000000000000000000000000000000000084
:102A520000000000000000001E920789050010001F
:102A62000000000000000000000000000000000064
:102A720000000000000000000000000000001E93A3
:102A82000C92050020000000000000000000000081
:102A92000000000000000000000000000000000034
:102AA200000000001E91089B0500080000000000C5
:102AB2000000000000000000000000000000000014
:102AC200000000000000000000001E9206A40500A5
:102AD20010000000000000000000000000000000E4
:102AE20000000000000000000000000000000000E4
:102AF2001E930BAD05002000000000000000000046
:102B020000000000000000000000000000000000C3
:102B12000000000000001E920AB60500100000002E
:102B220000000000000000000000000000000000A3
:102B32000000000000000000000000001E930FC112
:102B4200050020000000010000000000000000005D
:102B52000000000000000000000000000000000073
:102B620000001E940BCC050040000000017603001B
:102B720000000000008000000000000000C0120001
:102B820000000000000000001E950FD80500800024
:102B92000000027603000000000000800000000038
:102BA200000000C0120000000000000000001E959E
:102BB20014E305008000000002760300000000001C
:102BC200008000000000000000C0120000000000B1
:102BD200000000001E940AED050040000000010004
:102BE20000000000000000000000000000000000E3
:102BF200000000000000000000001E9508F805001B
:102C02008000000002000000000000000000000040
:102C120000000000000000000000000000000000B2
:102C22001E960A03060000010000040000000000D6
:102C32000000000000000000000000000000000092
:102C42000000000000001E96080E060000010000B1
:102C5200040000000000000000000000000000006E
:102C62000000000000000000000000001E97031892
:102C720006000002000004760300000000000000CD
:102C820001000000000000C012000000000000006F
:102C920000001E970423060000020000040000004A
:102CA2000000000000000000000000000000000022
:102CB20000000000000000001E98012E0600000423
:102CC2000000047603000000000000000100000084
:102CD200000000C0120000000000000000001E986A
:102CE2000239060000040000040000000000000099
:102CF20000000000000000000000000000000000D2
:102D0200000000001E93894406002000000002001B
:102D120000000000000000000000000000000000B1
:102D2200000000000000000000001E94894E060012
:102D32004000000002760300000000000080000056
:102D42000000000000C012000000000000000000AF
:102D52001E958A5906008000000002000000000053
:102D62000000000000000000000000000000000061
:102D72000000000000001E9488640600400000006D
:102D8200020000000000000000000000000000003F
:102D92000000000000000000000000001E95876F88
:102DA2000600800000001076030000000000008092
:102DB20000000000000000C012000000000000003F
:102DC20000001E97057A0600000200000476030048
:102DD20000000000000001000000000000C012001E
:102DE20000000000000000001E910A860600080094
:102DF20000000000000000000000000000000000D1
:102E020000000000000000000000000000001E9210
:102E12000D920600100000000000000000000000FB
:102E220000000000000000000000000000000000A0
:102E3200000000001E90079D060004000000000034
:102E42000000000000000000000000000000000080
:102E5200000000000000000000001E9307A706000B
:102E62002000000001760300000000000040000086
:102E72000000000000C0120000000000000000017D
:102E82000900CFF4D9EF66757365207465737420F9
:102E92006661696C0050524F4752414D20414E4786
:102EA200494E0050524F4752414D204F5645520015
:102EB200415474696E79323400415474696E7934C4
:102EC2003400415474696E79383400415474696E27
:102ED20079323500415474696E7934350041547445
:102EE200696E7938350041546D65676134385041F7
:102EF2000041546D656761383850410041546D6539
:102F0200676131363850410041546D656761333233
:102F120038500041546D6567613332380041546D59
:102F2200656761313634500041546D6567613332F3
:102F320034500041546D6567613634345000415459
:102F42006D6567613634300041546D6567613132B9
:102F520038300041546D6567613132383100415477
:102F62006D656761323536300041546D6567613297
:102F72003536310041546D65676138553200415430
:102F82006D656761313655320041546D6567613355
:102F92003255320041546D65676131365534004116
:102FA200546D656761333255340041546D65676114
:102FB200313238345000415474696E7932333133CE
:102FC2004100415474696E79343331330041547491
:102FD200696E793133410041546D65676138410052
:102FE200000000006612D213E8110112F31144121C
:102FF2000D0A006E616E00696E66006F7666002EC5
:023002000000CC
:00000001FF
