:100000000C94E5020C940D030C940D030C940D0359
:100010000C940D030C940D030C940D030C940D0320
:100020000C940D030C940D030C940D030C940D0310
:100030000C940D030C940D030C940D030C940D0300
:100040000C94C9090C940D030C94880C0C94BA0CF4
:100050000C940D030C940D030C940D030C940D03E0
:100060000C940D030C940D03436F6D70696C656403
:10007000206F6E20536570203237203230313720A8
:1000800061742031343A34383A3035005665727331
:10009000696F6E20312E3330005772697474656E4B
:1000A000206279204E69636B2047616D6D6F6E2E03
:1000B0000041746D65676120636869702070726FBC
:1000C0006772616D6D65722E00556E7265636F6744
:1000D000697A6564207369676E61747572652E0054
:1000E000577269746573206172652074696D656407
:1000F0002C206E6F7420706F6C6C65642E00206213
:10010000797465732E00466C617368206D656D6F40
:1001100072792073697A65203D200050726F6365A3
:1001200073736F72203D20005369676E617475723E
:1001300065203D2000456E74657265642070726FA5
:100140006772616D6D696E67206D6F6465204F4BDE
:100150002E004661696C656420746F20656E74655D
:10016000722070726F6772616D6D696E67206D6F5E
:1001700064652E20446F75626C652D636865636BE2
:1001800020776972696E6721002E00417474656D75
:100190007074696E6720746F20656E74657220706C
:1001A000726F6772616D6D696E67206D6F64652037
:1001B0002E2E2E00446F6E652E0057726974696E84
:1001C00067206675736573202E2E2E004669727344
:1001D00074203130302073686F776E2E0020766582
:1001E00072696669636174696F6E206572726F729D
:1001F0002873292E004E6F206572726F727320660D
:100200006F756E642E002045787065637465643A7E
:1002100020002E20476F743A200056657269666987
:10022000636174696F6E206572726F7220617420F1
:1002300061646472657373200056657269667969DA
:100240006E67202E2E2E005772697474656E2E0014
:1002500057726974696E6720626F6F746C6F616446
:100260006572202E2E2E0045726173696E672063C1
:10027000686970202E2E2E00466978696E67206CA2
:100280006F7720667573652073657474696E672077
:100290002E2E2E00436C656172696E6720274469BB
:1002A0007669646520636C6F636B20627920382700
:1002B0002066757365206269742E0020627974650A
:1002C000732E00426F6F746C6F61646572206C6591
:1002D0006E677468203D2000426F6F746C6F6164BC
:1002E00065722061646472657373203D203078000C
:1002F0004E6F20626F6F746C6F61646572207375EE
:1003000070706F727420666F7220746869732064F5
:1003100065766963652E00436C6F636B2063616C67
:100320006962726174696F6E203D20004C6F636B6F
:100330002062797465203D20004546757365203D37
:1003400020004846757365203D20004C4675736556
:10035000203D2000436F6D6D697474696E67207075
:10036000616765207374617274696E6720617420BF
:10037000307800307800112484B714BE81FFF0D0AB
:1003800085E08093810082E08093C00088E18093C3
:10039000C10086E08093C20080E18093C4008EE0BB
:1003A000C9D0259A86E020E33CEF91E030938500A8
:1003B0002093840096BBB09BFECF1D9AA8958150D8
:1003C000A9F7CC24DD2488248394B5E0AB2EA1E1E9
:1003D0009A2EF3E0BF2EA2D0813461F49FD0082F73
:1003E000AFD0023811F0013811F484E001C083E08D
:1003F0008DD089C0823411F484E103C0853419F4AE
:1004000085E0A6D080C0853579F488D0E82EFF2419
:1004100085D0082F10E0102F00270E291F29000F6C
:10042000111F8ED068016FC0863521F484E090D012
:1004300080E0DECF843609F040C070D06FD0082F46
:100440006DD080E0C81680E7D80618F4F601B7BE74
:10045000E895C0E0D1E062D089930C17E1F7F0E0B5
:10046000CF16F0E7DF0618F0F601B7BEE89568D0C2
:1004700007B600FCFDCFA601A0E0B1E02C9130E072
:1004800011968C91119790E0982F8827822B932BAF
:100490001296FA010C0187BEE89511244E5F5F4F5A
:1004A000F1E0A038BF0751F7F601A7BEE89507B6FF
:1004B00000FCFDCF97BEE89526C08437B1F42ED05E
:1004C0002DD0F82E2BD03CD0F601EF2C8F010F5FF2
:1004D0001F4F84911BD0EA94F801C1F70894C11C06
:1004E000D11CFA94CF0CD11C0EC0853739F428D01A
:1004F0008EE10CD085E90AD08FE07ACF813511F4F6
:1005000088E018D01DD080E101D065CF982F809170
:10051000C00085FFFCCF9093C60008958091C00075
:1005200087FFFCCF8091C00084FD01C0A895809119
:10053000C6000895E0E6F0E098E190838083089596
:10054000EDDF803219F088E0F5DFFFCF84E1DECF08
:100550001F93182FE3DF1150E9F7F2DF1F91089581
:1005600080E0E8DFEE27FF270994FFFFFFFFFFFF92
:10057000FFFFFFFF04040000000800020100000369
:100580000407000000000000000001020408102021
:100590004080010204081020010204081020040415
:1005A000040404040404020202020202030303031B
:1005B000030300000000250028002B0000000000BD
:1005C000240027002A001D08EA0C11241FBECFEFCB
:1005D000D8E0DEBFCDBF16E0A0E0B1E0E8EEFCE180
:1005E00002C005900D92A63DB107D9F727E0A6ED10
:1005F000B6E001C01D92A438B207E1F715E0CAECDD
:10060000D5E004C02297FE010E94610EC63CD107CE
:10061000C9F70E942D0E0C94720E0C9400008EBD32
:1006200000000DB407FEFDCF8EB508952CB5982FB0
:1006300093702C7F922B9CBD9DB582FB882780F9FF
:100640009E7F982B9DBD0895CF93DF9300D01F927E
:10065000CDB7DEB72B834A8369830E940F0369817C
:10066000862F0E940F034A81842F0E940F032B8143
:10067000822F0F900F900F90DF91CF910C940F036A
:100680008F929F92AF92BF92CF92DF92EF92FF92A2
:10069000CF9360FF02C0C8E001C0C0E04B015C0125
:1006A000B694A794979487946501EE24FF248091D3
:1006B000D6068C1541F020E04C2D60E08DE40E94C0
:1006C0002403C092D60699278B2D7A2D692D20E020
:1006D000482D8C2F8062CF91FF90EF90DF90CF90CC
:1006E000BF90AF909F908F900C942403242F60FFB5
:1006F00002C038E001C030E0AB01BC0176956795DF
:100700005795479560E0832F80640C9424030F93E2
:100710001F93CF93DF9300D000D0CDB7DEB7182F53
:10072000062F442331F063E773E087EE96E00E94E2
:100730006B0D19821A821B821C8280E28B83912F9F
:1007400092959F7090639983812F8F7080638A83C5
:100750009A3314F0995F99838A3314F0895F8A83FE
:10076000BE016F5F7F4F87EE96E00E948E0D0023E3
:1007700021F087EE96E00E94900D0F900F900F9061
:100780000F90DF91CF911F910F91089580910001FB
:100790009091010126E2289FF001299FF00D11247C
:1007A000EE5FFE4F85A1882331F06AE070E080E0C3
:1007B00090E00C94360A20E040E060E080EF0E9478
:1007C000240380FDF8CF08958F929F92AF92BF923D
:1007D000CF92DF92EF92FF924B015C0164E573E0F0
:1007E00087EE96E00E946B0D20E130E0B501A40198
:1007F00087EE96E00E941A0EB694A7949794879479
:100800006501EE24FF248091D6068C1541F020E08E
:100810004C2D60E08DE40E942403C092D6069927F7
:100820008B2D7A2D692D20E0482D8CE40E94240325
:10083000FF90EF90DF90CF90BF90AF909F908F9000
:100840000C94C603882339F0282F40E08CEA0E94DC
:1008500024030C94C60308956BE473E087EE96E0DE
:100860000E946B0D20E040E060E080E50E942403E0
:1008700041E061E00E94870362E473E087EE96E066
:100880000E946B0D20E040E068E088E50E942403B0
:1008900041E061E00E94870369E373E087EE96E040
:1008A0000E946B0D20E040E068E080E50E94240398
:1008B00041E061E00E9487036CE273E087EE96E01E
:1008C0000E946B0D20E040E060E088E50E94240378
:1008D00041E061E00E94870320E040E060E080E5C5
:1008E0000E94240390915905891324C020E040E020
:1008F00068E088E50E9424039091580589131AC086
:1009000020E040E068E080E50E94240390915705D4
:10091000891310C067E173E087EE96E00E946B0DCB
:1009200020E040E060E088E30E94240341E061E0D1
:100930000C9487036AE575E087EE96E00E94A60DA9
:100940008091D7069091D80681609093D8068093C5
:10095000D706E0CF1F93CF93DF936BE871E087EE6C
:1009600096E00E946B0D61E086E00E940D0B0E94F4
:10097000930982E00E94160361E086E00E94D40A97
:1009800061E08DE00E94D40AC3E3D0E064E670E049
:1009900080E090E00E94360A60E08DE00E940D0B3E
:1009A00061E086E00E940D0B61E070E080E090E085
:1009B0000E94360A60E086E00E940D0B69E170E05B
:1009C00080E090E00E94360A8CEA0E940F0383E5E3
:1009D0000E940F0380E00E940F03182F80E00E9406
:1009E0000F031335A1F069E871E087EE96E00E94ED
:1009F0006B0D219759F687EE96E00E94900D62E507
:100A000071E087EE96E00E94940D80E00BC087EEC7
:100A100096E00E94900D65E371E087EE96E00E94FB
:100A2000940D81E0DF91CF911F9108952F923F9215
:100A30004F925F926F927F928F929F92AF92BF92EE
:100A4000CF92DF92EF92FF920F931F93CF93DF939A
:100A5000CDB7DEB72E970FB6F894DEBF0FBECDBF71
:100A6000809100019091010116E2189FF001199FF9
:100A7000F00D1124EE5FFE4F83859485892B19F4C8
:100A800060EF72E074C120E040E060E080E50E9429
:100A90002403782E8091000190910101189FF001AC
:100AA000199FF00D1124EE5FFE4F87898D87908D81
:100AB0009B87A18DAC87B28DBE8785849684A784E1
:100AC000B08801891289C388D488E588F68883852F
:100AD00094859E838D8368ED72E087EE96E00E9498
:100AE0006B0D20E130E0B501A40187EE96E00E9495
:100AF0001A0E63EC72E087EE96E00E946B0D4AE0FE
:100B000050E0B80187EE96E00E94140E6BEB72E0A5
:100B100087EE96E00E94940D9D85791639F177FC59
:100B200006C064E972E087EE96E00E94940D68E7E3
:100B300072E087EE96E00E94940D60EA8D850E9437
:100B4000220468EE73E080E090E00E94360A61E0E3
:100B500086E00E940D0B0E94AA04882309F423C199
:100B600068EE73E080E090E00E94360A88279927BB
:100B7000DC018C199D09AE09BF0989839A83AB8377
:100B8000BC832C013D01482059206A207B2067E668
:100B900072E087EE96E00E94940D20E040E060E86D
:100BA0008CEA0E94240364E170E080E090E00E94FF
:100BB000360A0E94C60360E572E087EE96E00E9466
:100BC000940D750164012D803E8096012819390924
:100BD0002017310798F589819A81AB81BC818C21DE
:100BE0009D21AE21BF218F839887A987BA8784155D
:100BF0009505A605B70521F0C301B2010E94E403E3
:100C0000F1014491C701B6010E947603F1013196CA
:100C10004491C701B6016F5F7F4F8F4F9F4F0E9476
:100C20007603F2E02F0E311C82E0C80ED11CE11CCD
:100C3000F11C4F80588469847A84C7CFC301B20104
:100C40000E94E40367E472E087EE96E00E94940D50
:100C500069E372E087EE96E00E94940DE12CF12C9E
:100C6000C12CD12CC016D10609F440C0C501B40175
:100C70000E944003782EED81FE81EC0DFD1D6490F5
:100C8000861559F195E6E916F10420F56AE172E05E
:100C900087EE96E00E946B0D20E130E0B501A401E3
:100CA00087EE96E00E94070E62E172E087EE96E022
:100CB0000E946B0D41E060E0872D0E94870366E093
:100CC00072E087EE96E00E946B0D41E061E0862DB8
:100CD0000E948703AFEFEA1AFA0ABFEFCB1ADB0ACA
:100CE000EFEF8E1A9E0AAE0ABE0ABCCFE114F104E1
:100CF00009F565EF71E087EE96E00E94940D6AEBCE
:100D000071E087EE96E00E94940D60EA8D850E9466
:100D1000220468EA8B850E94220464EA8C850E9482
:100D2000220460EE8E850E9422040E942C0464EB53
:100D300071E01DC08091D7069091D8068E299F2919
:100D40009093D8068093D7064AE050E0B70187EE2B
:100D500096E00E94140E6DED71E087EE96E00E9421
:100D6000940DF5E6EF16F104F0F06CEC71E087EE0F
:100D700096E02E960FB6F894DEBF0FBECDBFDF9182
:100D8000CF911F910F91FF90EF90DF90CF90BF9088
:100D9000AF909F908F907F906F905F904F903F901B
:100DA0002F900C94940D2E960FB6F894DEBF0FBEC4
:100DB000CDBFDF91CF911F910F91FF90EF90DF900A
:100DC000CF90BF90AF909F908F907F906F905F90EB
:100DD0004F903F902F900895CF92DF92EF92FF9225
:100DE0000F931F93CF93DF9300D01F92CDB7DEB741
:100DF0008FEF9FEF90930101809300011092D60630
:100E000068E271E087EE96E00E946B0D8E010F5F45
:100E10001F4FF12CD02EC12E20E04F2D60E080E33B
:100E20000E942403F80181938F0141E060E00E9459
:100E30008703F394F3E0FF12EFCF87EE96E00E9472
:100E4000900D92E0E92E91E0F92E00E010E043E0F1
:100E500050E0B7018D2D9C2D0E94650E26E2E20E1A
:100E6000F11C892B09F044C010930101009300018B
:100E70006BE171E087EE96E00E946B0D86E2D82E62
:100E8000D09E7001D19EF00C1124C7018E5F9E4F41
:100E90007C01FC016381748187EE96E00E94A60DBF
:100EA00066E071E087EE96E00E946B0DF7014581E8
:100EB0005681678170852AE030E087EE96E00E94D7
:100EC000070E6EEF70E087EE96E00E94940D809121
:100ED000000190910101D89EF001D99EF00D1124DE
:100EE000EE5FFE4F85A18823D1F060EE70E008C070
:100EF0000F5F1F4F0D31110509F0A9CF69EC70E0AC
:100F000087EE96E00F900F900F90DF91CF911F9199
:100F10000F91FF90EF90DF90CF900C94940D0F9075
:100F20000F900F90DF91CF911F910F91FF90EF9055
:100F3000DF90CF90089526E040E052EC61E070E051
:100F400087EE96E00E94260C87EE96E00E94900DB8
:100F500061EB70E087EE96E00E94940D69E970E025
:100F600087EE96E00E94940D6CE870E087EE96E0C4
:100F70000E94940D68E670E087EE96E00E94940D62
:100F800061E086E00E940D0B0E94930982E00E94BE
:100F9000160361E084E30C94D40A81E090E090931E
:100FA000D8068093D70669E675E087EE96E00E9442
:100FB000A60D61E0809150050E94D40A60E0809106
:100FC00050050E940D0B0E94AA04882341F1109243
:100FD000D8061092D7060E94EC060E942C0480913D
:100FE000000190910101019641F00E94160568EE02
:100FF00073E080E090E00E94360A0E94EC060E94B6
:101000002C048091000190910101019641F00E9411
:10101000160568EE73E080E090E00E94360A0E94B8
:10102000AA04882339F067E775E087EE96E00E940E
:10103000A60DEFCF08950C94CD07CF93DF93409189
:101040005205509153056091540570915505409398
:101050003F0250934002609341027093420220E0AD
:1010600032E03093440220934302D0915905D0934B
:101070004902C0915805C0934A02F0915705F09378
:101080004B02E0915605E0934C028091D906909175
:10109000DA06A091DB06B091DC0680934F029093B4
:1010A0005002A0935102B093520210925302109238
:1010B00054021092550210925602409365025093CA
:1010C0006602609367027093680230936A0220930D
:1010D0006902D0936F02C0937002F0937102E093A3
:1010E00072028093750290937602A0937702B09378
:1010F00078021092790210927A0210927B0210927A
:101100007C0240938B0250938C0260938D0270930B
:101110008E023093900220938F02D0939502C09359
:101120009602F0939702E093980280939B0290932B
:101130009C02A0939D02B0939E0210929F02109277
:10114000A0021092A1021092A20240934903509370
:101150004A0360934B0370934C0330934E032093E8
:101160004D03D0935303C0935403F0935503E0937E
:1011700056038093590390935A03A0935B03B09353
:101180005C0310925D0310925E0310925F03109255
:101190006003409395035093960360939703709375
:1011A000980330939A0320939903D0939F03C0939D
:1011B000A003F093A103E093A2038093A50390936F
:1011C000A603A093A703B093A8031092A9031092BB
:1011D000AA031092AB031092AC0340930704509300
:1011E00008046093090470930A0430930C0420935C
:1011F0000B04D0931104C0931204F0931304E093F2
:1012000014048093170490931804A0931904B093C6
:101210001A0410921B0410921C0410921D041092C8
:101220001E044093790450937A0460937B04709376
:101230007C0430937E0420937D04D0938304C09378
:101240008404F0938504E09386048093890490934A
:101250008A04A0938B04B0938C0410928D04109296
:101260008E0410928F041092900440939F04509328
:10127000A0046093A1047093A2043093A40420936B
:10128000A304D093A904C093AA04F093AB04E09301
:10129000AC048093AF049093B004A093B104B093D6
:1012A000B2041092B3041092B4041092B5041092D8
:1012B000B604409337055093380560933905709311
:1012C0003A0530933C0520933B05D0934105C093EC
:1012D0004205F0934305E0934405809347059093BE
:1012E0004805A0934905B0934A0510924B0510920A
:1012F0004C0510924D0510924E05DF91CF91089547
:1013000061E0809150050E94D40A60E08091500510
:101310000E940D0B0E949B0787EE96E00E94430BF4
:10132000892BD1F30895CF93CFB7F8948091DD0640
:10133000811127C0E8EAF5E08491E4E9F5E09491B1
:10134000E82FF0E0EE0FFF1FE454FA4FA591B4919F
:101350008C91892321F461E08AE00E940D0B61E009
:101360008AE00E94D40A8CB580618CBD8CB5806403
:101370008CBD61E08DE00E94D40A61E08BE00E94A8
:10138000D40A8091DD068F5F8093DD06CFBFCF91B9
:1013900008951F920F920FB60F9211242F933F932F
:1013A0008F939F93AF93BF938091DF069091E00658
:1013B000A091E106B091E2063091DE0623E0230F12
:1013C0002D3720F40196A11DB11D05C026E8230F7D
:1013D0000296A11DB11D2093DE068093DF06909337
:1013E000E006A093E106B093E2068091E3069091B7
:1013F000E406A091E506B091E6060196A11DB11D97
:101400008093E3069093E406A093E506B093E60686
:10141000BF91AF919F918F913F912F910F900FBEF0
:101420000F901F9018953FB7F8948091E306909124
:10143000E406A091E506B091E60626B5A89B05C096
:101440002F3F19F00196A11DB11D3FBF6627782FD0
:10145000892F9A2F620F711D811D911D42E0660F29
:10146000771F881F991F4A95D1F708958F929F92F1
:10147000AF92BF92CF92DF92EF92FF926B017C010D
:101480000E94130A4B015C01C114D104E104F10470
:10149000F1F00E943C0E0E94130A681979098A092A
:1014A0009B09683E73408105910570F321E0C21AE3
:1014B000D108E108F10888EE880E83E0981EA11C8F
:1014C000B11CC114D104E104F10429F7DDCFFF9070
:1014D000EF90DF90CF90BF90AF909F908F90089546
:1014E000789484B5826084BD84B5816084BD85B5FF
:1014F000826085BD85B5816085BDEEE6F0E08081C6
:1015000081608083E1E8F0E01082808182608083E6
:10151000808181608083E0E8F0E080818160808369
:10152000E1EBF0E0808184608083E0EBF0E080819B
:1015300081608083EAE7F0E080818460808380813D
:1015400082608083808181608083808180688083E5
:101550001092C1000895833081F028F4813099F011
:101560008230A1F008958730A9F08830B9F0843036
:10157000D1F4809180008F7D03C0809180008F77AF
:1015800080938000089584B58F7702C084B58F7DE5
:1015900084BD08958091B0008F7703C08091B00022
:1015A0008F7D8093B0000895CF93DF9390E0FC018E
:1015B000E657FA4F2491FC01E256FA4F84918823B2
:1015C00049F190E0880F991FFC01E454FA4FA5916E
:1015D000B4918E549A4FFC01C591D4919FB761117B
:1015E00008C0F8948C91209582238C938881822363
:1015F0000AC0623051F4F8948C91322F30958323D5
:101600008C938881822B888304C0F8948C91822BE0
:101610008C939FBFDF91CF9108950F931F93CF932A
:10162000DF931F92CDB7DEB7282F30E0F901EA58DB
:10163000FA4F8491F901E657FA4F1491F901E256F5
:10164000FA4F04910023C9F0882321F069830E9496
:10165000AB0A6981E02FF0E0EE0FFF1FEE54FA4F66
:10166000A591B4919FB7F8948C91611103C0109526
:10167000812301C0812B8C939FBF0F90DF91CF916D
:101680001F910F910895FC01818D228D90E0805C67
:101690009F4F821B91098F7399270895FC01918DAB
:1016A000828D981731F0828DE80FF11D858D90E0C5
:1016B00008958FEF9FEF0895FC01918D828D98170B
:1016C00061F0828DDF01A80FB11D5D968C91928D26
:1016D0009F5F9F73928F90E008958FEF9FEF089523
:1016E00080EE9CE0892B49F080E090E0892B29F086
:1016F0000E94E00C81110C9400000895FC01848D7F
:10170000DF01A80FB11DA35ABF4F2C91848D90E02B
:1017100001968F739927848FA689B7892C93A08906
:10172000B1898C9180648C93938D848D981306C0BD
:101730000288F389E02D80818F7D80830895CF9387
:10174000DF93EC01888D8823C9F0EA89FB898081C9
:1017500085FD05C0A889B9898C9186FD0FC00FB69B
:1017600007FCF5CF808185FFF2CFA889B9898C91DC
:1017700085FFEDCFCE010E947E0BE7CFDF91CF91A9
:101780000895CF92DF92FF920F931F93CF93DF9331
:101790001F92CDB7DEB76C0181E0D60158968C93CD
:1017A00058975B969C915B975C968C915C9798138D
:1017B00007C05096ED91FC915197808185FD2EC018
:1017C000F601038D10E00F5F1F4F0F731127F02EEE
:1017D000F601848DF81211C00FB607FCF9CFD601BF
:1017E0005096ED91FC915197808185FFF1CFC60114
:1017F00069830E947E0B6981EBCF838DE80FF11D19
:10180000E35AFF4F6083D6015B960C935B97529629
:10181000ED91FC915397808180620CC0D601569661
:10182000ED91FC91579760835096ED91FC91519703
:1018300080818064808381E090E00F90DF91CF9180
:101840001F910F91FF90DF90CF900895BF92CF929C
:10185000DF92EF92FF92CF93DF93EC016A017B015D
:10186000B22EE889F98982E08083411581EE58071C
:1018700061057105A1F060E079E08DE390E0A701DA
:1018800096010E943D0E215031094109510956959A
:10189000479537952795211580E1380798F0E88915
:1018A000F989108260E874E88EE190E0A701960162
:1018B0000E943D0E21503109410951095695479525
:1018C00037952795EC85FD853083EE85FF85208350
:1018D000188EEC89FD89B082EA89FB89808180615C
:1018E0008083EA89FB89808188608083EA89FB891B
:1018F000808180688083EA89FB8980818F7D8083F5
:10190000DF91CF91FF90EF90DF90CF90BF9008953F
:101910001F920F920FB60F9211242F938F939F93C4
:10192000EF93FF93E091F706F091F8068081E09144
:10193000FD06F091FE0682FD12C0908180910007A5
:101940008F5F8F7320910107821751F0E09100079C
:10195000F0E0E951F94F958F8093000701C0808135
:10196000FF91EF919F918F912F910F900FBE0F904C
:101970001F9018951F920F920FB60F9211242F935C
:101980003F934F935F936F937F938F939F93AF9307
:10199000BF93EF93FF9387EE96E00E947E0BFF913B
:1019A000EF91BF91AF919F918F917F916F915F91D7
:1019B0004F913F912F910F900FBE0F901F90189550
:1019C00087EE96E00E94430B21E0892B09F420E08A
:1019D000822F08951092EA061092E90688EE93E0AD
:1019E000A0E0B0E08093EB069093EC06A093ED06A8
:1019F000B093EE0688EB96E09093E8068093E706B6
:101A000085EC90E09093F4068093F30684EC90E0EC
:101A10009093F6068093F50680EC90E09093F8069C
:101A20008093F70681EC90E09093FA068093F90694
:101A300082EC90E09093FC068093FB0686EC90E0AD
:101A40009093FE068093FD06109200071092010706
:101A500010920207109203070895CF92DF92EF923F
:101A6000FF920F931F93CF93DF937C016A01EB01E9
:101A700000E010E00C151D0571F06991D701ED91A2
:101A8000FC910190F081E02DC7010995892B19F097
:101A90000F5F1F4FEFCFC801DF91CF911F910F91C3
:101AA000FF90EF90DF90CF9008956115710581F060
:101AB000DB010D900020E9F7AD0141505109461BB3
:101AC000570BDC01ED91FC910280F381E02D09942C
:101AD00080E090E00895EF92FF920F931F93CF93D1
:101AE000DF938C017B01C0E0D0E0F701EC0FFD1F1C
:101AF0006491662359F0F801A081B181ED91FC91C8
:101B0000C8010995892B11F02196EFCFCE01DF9105
:101B1000CF911F910F91FF90EF9008950C94550D68
:101B200064EC76E00C94550D0F931F93CF93DF93E5
:101B3000EC010E946B0D8C01CE010E94900D800F74
:101B4000911FDF91CF911F910F9108950F931F93D4
:101B5000CF93DF93EC010E94550D8C01CE010E94C2
:101B6000900D800F911FDF91CF911F910F910895DC
:101B70008F929F92AF92BF92DF92EF92FF920F935C
:101B80001F93CF93DF93CDB7DEB7A1970FB6F8942D
:101B9000DEBF0FBECDBF7C01F42FD52ECB0119A225
:101BA000223008F42AE08E010F5D1F4F822E912C07
:101BB000A12CB12C6F2F7D2DA50194010E943D0E0B
:101BC000F22FD32ECA01015011096A3014F4E0E358
:101BD00001C0E7E3E60FD801EC93232B242B252B40
:101BE00049F7B801C7010E94550DA1960FB6F894A8
:101BF000DEBF0FBECDBFDF91CF911F910F91FF9040
:101C0000EF90DF90BF90AF909F908F900895211537
:101C1000310541F4DC01ED91FC910190F081E02D62
:101C2000642F09940C94B80D9A01AB0160E070E048
:101C30000C94070E0F931F93CF93DF93EC010E9438
:101C4000070E8C01CE010E94900D800F911FDF9135
:101C5000CF911F910F91089508950E94700A0E94DC
:101C60002C0E0E948009C0E7DBE00E941B08209731
:101C7000E1F30E94700BF9CF0895A1E21A2EAA1B7E
:101C8000BB1BFD010DC0AA1FBB1FEE1FFF1FA2172C
:101C9000B307E407F50720F0A21BB30BE40BF50B29
:101CA000661F771F881F991F1A9469F760957095B2
:101CB000809590959B01AC01BD01CF010895EE0F79
:101CC000FF1F0590F491E02D0994FB01DC0104C095
:101CD0008D910190801921F441505040C8F7881B24
:081CE000990B0895F894FFCF61
:101CE800FFFF1E910B8405000800000000000000A3
:101CF80000000000000000000000000000000000DC
:101D080000000000000000001E92078D0500100072
:101D180000000000000000000000000000000000BB
:101D280000000000000000000000000000001E93FA
:101D38000C960500200000000000000000000000D4
:101D4800000000000000000000000000000000008B
:101D5800000000001E91089F050008000000000018
:101D6800000000000000000000000000000000006B
:101D7800000000000000000000001E9206A80500F8
:101D8800100000000000000000000000000000003B
:101D9800000000000000000000000000000000003B
:101DA8001E930BB105002000000000000000000099
:101DB800000000000000000000000000000000001B
:101DC8000000000000001E920ABA05001000000082
:101DD80000000000000000000000000000000000FB
:101DE8000000000000000000000000001E930FC566
:101DF80005002000000001000000000000000000B5
:101E080000000000000000000000000000000000CA
:101E180000001E940BD0050040000000017603006E
:101E280000000000008000000000000000760500AF
:101E380000000000000000001E950FDC0500800077
:101E4800000002760300000000000080000000008F
:101E580000000076050000000000000000001E954C
:101E680014E705008000000002760300000000006F
:101E7800008000000000000000760500000000005F
:101E8800000000001E940AF1050040000000010057
:101E9800000000000000000000000000000000003A
:101EA800000000000000000000001E9508FC05006E
:101EB8008000000002000000000000000000000098
:101EC800000000000000000000000000000000000A
:101ED8001E960A070600000100000400000000002A
:101EE80000000000000000000000000000000000EA
:101EF8000000000000001E96081206000001000005
:101F080004000000000000000000000000000000C5
:101F18000000000000000000000000001E97031CE5
:101F28000600000200000476030000000000000024
:101F3800010000000000007605000000000000001D
:101F480000001E970427060000020000040000009D
:101F58000000000000000000000000000000000079
:101F680000000000000000001E9801320600000476
:101F780000000476030000000000000001000000DB
:101F880000000076050000000000000000001E9818
:101F9800023D0600000400000400000000000000EC
:101FA8000000000000000000000000000000000029
:101FB800000000001E93894806002000000002006F
:101FC8000000000000000000000000000000000009
:101FD800000000000000000000001E948952060066
:101FE80040000000027603000000000000800000AE
:101FF800000000000076050000000000000000005E
:102008001E958A5D060080000000020000000000A6
:1020180000000000000000000000000000000000B8
:102028000000000000001E948868060040000000C0
:102038000200000000000000000000000000000096
:102048000000000000000000000000001E958773DB
:1020580006008000000010760300000000000080E9
:1020680000000000000000760500000000000000ED
:1020780000001E97057E060000020000047603009B
:1020880000000000000001000000000000760500CC
:1020980000000000000000001E910A8A06000800E7
:1020A8000000000000000000000000000000000028
:1020B80000000000000000000000000000001E9268
:1020C8000D9606001000000000000000000000004F
:1020D80000000000000000000000000000000000F8
:1020E800000000001E9007A1060004000000000088
:1020F80000000000000000000000000000000000D8
:10210800000000000000000000001E9307AB06005E
:1021180020000000017603000000000000400000DD
:10212800000000000076050000000000000000012B
:102138000900007E0000FFFDDEFF667573652074F0
:10214800657374206661696C0050524F4752414D67
:1021580020414E47494E0050524F4752414D204F63
:1021680056455200415474696E79323400415474B2
:10217800696E79343400415474696E793834004199
:102188005474696E79323500415474696E79343506
:1021980000415474696E7938350041546D65676142
:1021A800343850410041546D6567613838504100FA
:1021B80041546D65676131363850410041546D6551
:1021C8006761333238500041546D65676133323886
:1021D8000041546D656761313634500041546D6576
:1021E8006761333234500041546D65676136343469
:1021F800500041546D6567613634300041546D6557
:102208006761313238300041546D65676131323869
:10221800310041546D656761323536300041546D87
:10222800656761323536310041546D6567613855EF
:10223800320041546D656761313655320041546D45
:10224800656761333255320041546D6567613136D7
:1022580055340041546D656761333255340041543B
:102268006D656761313238345000415474696E7954
:10227800323331334100415474696E793433313328
:1022880000415474696E793133410041546D65677A
:102298006138410000000000C10B2D0D430B5C0BA1
:1022A8004E0B9F0B0D0A006E616E00696E66006F23
:0622B8007666002E000016
:00000001FF
